S113800000180020D5800000438100004581000055
S1138010000000000000000000000000000000005C
S11380200000000000000000000000004781000084
S11380300000000000000000498100005984000095
S11380404F810000578100005F81000067810000BC
S11380506F810000778100007F810000878100002C
S11380608F810000978100009F810000A78100009C
S1138070AF810000B7810000BF810000C78100000C
S1138080CF810000D7810000DF810000E78100007C
S1138090EF810000F78100000986000007820000DC
S11380A00F82000017820000ED8300002782000089
S11380B02F820000378200003F82000047820000C8
S11380C0448F000080F8FF1F0000000080F8FF1FAD
S11380D0DC00000072B600F0AFFB0E4B07E018683E
S11380E059681C000C349A6800F01AF823000A4AF4
S11380F09342F4D306E018681C000834596800F071
S113810018F82300054A9342F5D362B600F07AFECC
S1138110FEE7C046C0800000CC800000D480000090
S113812010B5002302E010C810C104339342FAD3FF
S113813010BD002302E0002204C004338B42FAD3B2
S11381407047FEE7FEE7FEE7FEE7FEE7FEE710B551
S1138150FFF7FCFF10BD10B5FFF7F8FF10BD10B519
S1138160FFF7F4FF10BD10B5FFF7F0FF10BD10B519
S1138170FFF7ECFF10BD10B5FFF7E8FF10BD10B519
S1138180FFF7E4FF10BD10B5FFF7E0FF10BD10B519
S1138190FFF7DCFF10BD10B5FFF7D8FF10BD10B519
S11381A0FFF7D4FF10BD10B5FFF7D0FF10BD10B519
S11381B000F00CFB10BD10B500F01AFB10BD10B59B
S11381C000F028FB10BD10B5FFF7C0FF10BD10B5BF
S11381D0FFF7BCFF10BD10B5FFF7B8FF10BD10B519
S11381E0FFF7B4FF10BD10B5FFF7B0FF10BD10B519
S11381F0FFF7ACFF10BD10B5FFF7A8FF10BD10B519
S1138200FFF7A4FF10BD10B5FFF7A0FF10BD10B518
S1138210FFF79CFF10BD10B5FFF798FF10BD10B518
S1138220FFF794FF10BD10B5FFF790FF10BD10B518
S1138230FFF78CFF10BD10B5FFF788FF10BD10B518
S1138240FFF784FF10BD10B5FFF780FF10BDFFFFDF
S113825080B582B000AF0200FB1D1A70FB1D1B78B5
S11382607F2B09D8FB1D1B781A001F231A40044BCF
S1138270012191400A001A60C046BD4602B080BD8B
S113828000E100E080B582B000AF0200FB1D1A706F
S1138290FB1D1B787F2B0AD8FB1D1B781A001F239C
S11382A01340054901229A40C0235B00CA50C046CE
S11382B0BD4602B080BDC04600E100E080B584B098
S11382C000AFF8607A600B203B180A1C1A703B1848
S11382D01A78FB689200D3583A1812783349194037
S11382E0FB689200D1503B181A78FB689200D15871
S11382F07B681B781A02E023DB0013403A181278DB
S11383001943FB689200D1503B181A78FB6892001D
S1138310D3583A18127802218B431900FB68920053
S1138320D1503B181A78FB689200D3583A18127847
S113833001218B431900FB689200D1503B181A7835
S1138340FB689200D3587A68527811003A18127870
S11383501943FB689200D1507B689B78002B20D096
S11383607B685A68124B1A603B181A78FB689200B3
S1138370D3583A1812780F491940FB689200D1502B
S11383803B181A78FB689200D1587B689B781A04D2
S1138390F0231B0313403A1812781943FB68920028
S11383A0D150C046BD4604B080BDC046FFF8FFFFB3
S11383B080F8FF1FFFFFF0FF80B582B000AF786048
S11383C00A00FB1C1A70084AA023D258FB1C1B7815
S11383D0012199400B0004491343A0228B50C0464D
S11383E0BD4602B080BDC04600C0044080B582B026
S11383F000AFFB1D00221A701EE0FB1D1B78144AFF
S11384001900100000F0BEFC031E10D0FB1D1B78E9
S11384100F4A19001000FFF7CFFF0E4B1B68002B0B
S113842005D00C4B1B68FA1D127810009847FB1DF1
S11384301A78FB1D01321A70FB1D1B781F2BDCD927
S11384401A20FFF71FFFC046BD4602B080BDC046DC
S113845000C0044080F8FF1F80B500AF064B1B68C6
S1138460002B02D0044B1B689847044A034B9268C4
S11384709A60C046BD4680BD84F8FF1F10E000E04E
S113848080B500AF304A3049C0239B00D258C02386
S11384909B00CA502C4AC1239B00D3582A492B4A1B
S11384A01A40C1239B00CA50274AC1239B00D358BA
S11384B025498022D2001A43C1239B00CA50244A72
S11384C0DC23D3582249234A1340DC228B50204A10
S11384D0DC23D3581E49C02292041343DC228B5060
S11384E01B4ADC23D3581A498022D2051343DC22C9
S11384F08B50194B9A68184B02210A439A60164B09
S11385009A68154B02218A439A60134B9A68124B5E
S113851001210A439A60104B9A680F4B0C210A43BD
S11385209A600D4A0C4B926A9A620B4B0B4A1A6280
S1138530094B1A69084B01210A431A611620FFF7F7
S113854087FEC046BD4680BD00400640FFF8FFFFE1
S113855000500640FFFFFFF800700340003E490052
S113856080B500AF024B01225A61C046BD4680BDB2
S11385700070034080B582B000AF0200FB1D1A708A
S1138580124B01221A70FB1D1B78022B0AD1104BCF
S11385901B78012B03D00E4B01221A7002E00C4B06
S11385A000221A70FB1D1B78032B0AD1084B1B7881
S11385B0022B03D0064B02221A7002E0044B002265
S11385C01A70C046BD4602B080BDC04659F9FF1FAF
S11385D058F9FF1F80B500AF094B01221A70094BEF
S11385E01B780133DAB2074B1A70064B1B78F02B59
S11385F002D1044B00221A70C046BD4680BDC0465D
S113860059F9FF1F5AF9FF1F80B500AF034B012230
S1138610DA60FFF7DFFFC046BD4680BD007003404F
S113862080B500AF5C4A94235B00D3585A495B4A37
S11386301A4094235B00CA50574A94235B00D358D2
S113864055498022D2051A4394235B00CA50524AEA
S113865098235B00D3585049504A1A4098235B0032
S1138660CA504D4A98235B00D3584B498022D20507
S11386701A4398235B00CA50FFF702FFFFF770FF0D
S1138680474B48481A00042100F060FB444B45481E
S11386901A00052100F05AFB434B44481A000221FA
S11386A000F054FB404B41481A00032100F04EFBFC
S11386B03F4B40481A000421FFF700FE3C4B3D4865
S11386C01A000521FFF7FAFD3B4B3C481A00022132
S11386D0FFF7F4FD384B39481A000321FFF7EEFD8C
S11386E01A20FFF7B5FD364B1B78012BFBD1354B18
S11386F01B78022B2CD04ADC002B02D0012B0BD090
S113870045E0284B0421180000F053FB254B0521BC
S1138710180000F04EFB3AE02B4B1B78012213406B
S1138720DBB2002B04D11F4B0521180000F053FBD2
S1138730254B1B780521180000F090FB0B00DBB2E1
S1138740002B21D1174B0421180000F044FB1BE03F
S11387501D4B1B780521180000F080FB0B00DBB2D9
S1138760002B04D10F4B0521180000F034FB164BED
S11387701B7801221340DBB2002B07D1094B0421E3
S1138780180000F028FB01E0C04600E0C0460C4B96
S113879000221A70A7E7C04600500640FFFFFFBF43
S11387A0348F000040F00F40388F0000C0F00F40BD
S11387B0248F000000A004402C8F000000C004405F
S11387C059F9FF1F58F9FF1F5AF9FF1F80B500AF71
S11387D0044B1A68044B1B68044819009047C046B0
S11387E0BD4680BD94F8FF1F88F8FF1F00A0064017
S11387F080B500AF044B5A68044B5B680448190009
S11388009047C046BD4680BD94F8FF1F88F8FF1FFF
S113881000B0064080B500AF044B9A68044B9B68D7
S1138820044819009047C046BD4680BD94F8FF1F18
S113883088F8FF1F00C0064080B500AF104B1A68CF
S113884080239B01134003D00D4B0E4A5A6005E070
S11388500B4B0D4A5A600A4B0C4A5A60084B0C4A9F
S11388609A60074B1B68A02293431A00044B2021F3
S11388700A431A6000F0C1FAC046BD4680BDC04636
S11388800020054020C528D920C5000028D90000B3
S1138890FFFF000070B5184C18492200002000F0BA
S11388A0ABF8802380225B0000212000D20000F07E
S11388B02FF8134C134D22002900012000F09CF8DE
S11388C0802380225B0000212000D20000F020F8E9
S11388D00D4B1B68022B0DDD0C4C290022000220DD
S11388E000F08AF880238022002120005B00D2005F
S11388F000F00EF870BDC046A4F8FF1F408F0000C2
S1138900E0F8FF1F428F00003C8F00001CF9FF1F9E
S1138910F0B5C56804000120AE070CD080208000AB
S1138920824213D08020C000824205D080204000C3
S113893082420BD0FF38F0BD2100012324311543BE
S1138940002021612160E361E560F4E7024F5E1ECF
S11389500120BE42F3D9EEE7FEFFFF00030003212E
S113896010B51A000B4219D1114C1368114959184A
S11389709943214219D0DCB2511C002C0BD0FF24A6
S11389802402911C234206D0FF2109040B40591EE6
S11389908B41D318D91C0130081A05E001335C1E41
S11389A02478002CDDD1101A10BD0432DDE7C04656
S11389B080808080FFFEFEFE2022C36810B59343B2
S11389C0C3608269836A04009A420CD000F04EF8B6
S11389D0E268074B1A4010231343E360A36AA361C0
S11389E02369E3622360E368024A1340E36010BD35
S11389F0EFCFFFFFBFBFFFFFF7B50D0001901000E1
S1138A00140000F095F82B78722B1CD0772B1DD016
S1138A10612B26D1144A593B0220691C0327844642
S1138A200426012508782B2813D0622816D0E2608A
S1138A30019A62611B0704D502220021200000F084
S1138A40C5F82000FEBD00230122E5E7042302222D
S1138A50E2E760463A4303430131E3E732432B4301
S1138A60FAE70024EDE7C0460280000070B5040078
S1138A70134AE36805691A400168C06AE260822209
S1138A801A40022A02D00120404270BDDB030CD5FB
S1138A90814200D201008D4209D10023094AA3601A
S1138AA0E368E56213402560E3600020EDE72200FF
S1138AB02800491B00F008F80028EED0E3E7C04680
S1138AC0FFFFF7FFFFFFFEFFF7B5D5680F001400A7
S1138AD056690190EB0205D5102330001D4300F0C8
S1138AE00FFAA061104B1D420FD03000A16900F0B5
S1138AF010FA002806DA80230120E268404213437A
S1138B00E3600FE0094B1D40E5603A003000019935
S1138B1000F005FA4300A2695B08FB1AD318A361AD
S1138B200028E8D1FEBDC04610000200EFFFFDFFA3
S1138B30F0B5C56804004769066989B0AB0720D061
S1138B402B0716D400F022F8380000F0D6F92B05D4
S1138B5002D5300000F060F90B4BAD0DAD059D4220
S1138B6007D120226846216A00F0D6F9684600F051
S1138B7069F93C220021200000F04AF9002009B0E4
S1138B80F0BD01204042FAE7000080ADF8B50028AE
S1138B9012D000F0B7F805002800F8BD3800604393
S1138BA0084BC01800F0AEF8002801D001256D4232
S1138BB00134A642F2DCEFE7034B040005003C2736
S1138BC01E68F6E7A4F8FF1F3C8F0000F7B5436961
S1138BD0C6680193364B04000D0000921E420BD070
S1138BE0019800F090F9071E06D1009B012B06D0D6
S1138BF0022B2DD0002B06D002273800FEBD20000A
S1138C0000F05AF82D18002DF6DBB30404D52368C0
S1138C10E26A9A4200D2E362A369AB420EDCE16AE3
S1138C2022688A4200D20A002169D0180091401AB1
S1138C30A84203DB206B1918A94228DC20231E4319
S1138C400023A562A36063601A4B1E40E660D4E76C
S1138C50019800F055F9E268002804DA80231343F0
S1138C600127E360C9E7E16A2368994200D90B0050
S1138C70A1695B1821695B1A920603D5A26A934223
S1138C8000DA1300834200DA0300ED18BBE7EB1AA5
S1138C90B50701D5181AA060F00703D50099521A38
S1138CA09A1A6260009AD118202321609E43CBE770
S1138CB003001000BFCFF7FFC16802008B0705D186
S1138CC0212201200E4B40421A60704720230B40A2
S1138CD009030AD5002B02D0806A0138F5E79369AD
S1138CE00068C0181369C01AF7E7002B01D0806A26
S1138CF0EBE70368816900695B18181AE5E7C04669
S1138D00A0F8FF1FC36870B503221E0004001640BC
S1138D10134211D09B0611D5856AFFF74DFEE36817
S1138D20094A20001340E360FFF7A0FE002206007A
S1138D3029002000FFF74AFF300070BD83690568F1
S1138D40ED180369ED1AEAE7FFCFFFFF80B584B0A1
S1138D5000AFF860B9607A607B681B78002B04D19F
S1138D60FB685A69FB685A6108E0FB685A6901218B
S1138D70BB6899400B001A43FB685A61C046BD4664
S1138D8004B080BD80B582B000AF78600A00FB1CDF
S1138D901A707B68A0229B58DBB2FA1C127801215E
S1138DA091400A00D2B21340DBB21800BD4602B0B3
S1138DB080BD80B582B000AF786039607B685A6846
S1138DC001213B6899400B001A437B685A60C046F6
S1138DD0BD4602B080BD80B582B000AF7860396016
S1138DE07B68DA6801213B6899400B001A437B6871
S1138DF0DA60C046BD4602B080BD80B500AFC04653
S1138E00BD4680BD10B5FFF745FDFFF709FC10BD59
S1138E1010B500F05DF810BD10B5002811D0802108
S1138E200C38490501608268002A0AD013688B4215
S1138E3007D14368546803331B1943609368836004
S1138E40F1E710BD10B50400FFF788FD0100200014
S1138E5000F05CF810BD03000B4321D4002931D08D
S1138E600122D207030901E0090112099942FBD941
S1138E70430801E0490052089942FBD900E049083F
S1138E80401A07D35241FAD30146104670474908A5
S1138E904018F7D29218FAD340180146104670478A
S1138EA0CB0F00D04942021000D54042534008B5D0
S1138EB0FFF7D4FF0CBC521000D34042002A00D567
S1138EC049421847F446002000F001F86047704713
S1138ED08446043A09D3830707D109060B0A1943C8
S1138EE00B0C1943043A02C0FCD2043203D00170C3
S1138EF00130013AFBD1604670470120404270477F
S1138F000120404270470120404270470120404206
S1138F1070470120404270470120404270471000D2
S1138F207047FFFF010000000000000001030A0079
S1138F30758500000100FFFF0000FFFF0300000033
S1078F407200770040L