S113800000180020D5800000438100004581000055
S1138010000000000000000000000000000000005C
S11380200000000000000000000000004781000084
S11380300000000000000000498100004B810000A6
S11380404F810000578100005F81000067810000BC
S11380506F810000778100007F810000878100002C
S11380608F810000978100009F810000A78100009C
S113807099860000B7810000BF810000858200005E
S1138080CF810000D7810000DF810000E78100007C
S1138090EF810000F78100003D85000007820000A9
S11380A00F820000178200001F8200002782000058
S11380B02F820000378200003F82000047820000C8
S11380C0FCA3000080F8FF1F0800000088F8FF1FD1
S11380D01401000072B600F075FD0E4B07E018683D
S11380E059681C000C349A6800F01AF823000A4AF4
S11380F09342F4D306E018681C000834596800F071
S113810018F82300054A9342F5D362B602F085F8C5
S1138110FEE7C046C0800000CC800000D480000090
S113812010B5002302E010C810C104339342FAD3FF
S113813010BD002302E0002204C004338B42FAD3B2
S11381407047FEE7FEE7FEE7FEE7FEE7FEE710B551
S1138150FFF7FCFF10BD10B5FFF7F8FF10BD10B519
S1138160FFF7F4FF10BD10B5FFF7F0FF10BD10B519
S1138170FFF7ECFF10BD10B5FFF7E8FF10BD10B519
S1138180FFF7E4FF10BD10B5FFF7E0FF10BD10B519
S1138190FFF7DCFF10BD10B5FFF7D8FF10BD10B519
S11381A0FFF7D4FF10BD10B5FFF7D0FF10BD10B519
S11381B000F0D2FC10BD10B500F0E0FC10BD10B50D
S11381C000F0EEFC10BD10B5FFF7C0FF10BD10B5F8
S11381D0FFF7BCFF10BD10B5FFF7B8FF10BD10B519
S11381E0FFF7B4FF10BD10B5FFF7B0FF10BD10B519
S11381F0FFF7ACFF10BD10B5FFF7A8FF10BD10B519
S1138200FFF7A4FF10BD10B5FFF7A0FF10BD10B518
S1138210FFF79CFF10BD10B5FFF798FF10BD10B518
S1138220FFF794FF10BD10B5FFF790FF10BD10B518
S1138230FFF78CFF10BD10B5FFF788FF10BD10B518
S1138240FFF784FF10BD10B5FFF780FF10BDFFFFDF
S113825080B582B000AF0200FB1D1A70FB1D1B78B5
S11382607F2B09D8FB1D1B781A001F231A40044BCF
S1138270012191400A001A60C046BD4602B080BD8B
S113828000E100E080B582B000AF1A2000F0CCF825
S113829000F0BAF803001A00164B1A60154B1B685D
S11382A0180000F0DFF80200BB1D1A80BB1D1A88FD
S11382B0114B1100180001F065FF104B1B680A2BCD
S11382C00FD10E4B00221A600D4B1A680C4B1F2164
S11382D00A431A600A4B1A68094B40218A431A6000
S11382E004E0064B1B685A1C044B1A60C046BD468A
S11382F002B080BD8CF8FF1F80F8FF1F88F8FF1FB5
S113830000B0034080B500AF054B1B681F229343A8
S11383101A00034B1A210A431A60C046BD4680BDA9
S113832000B0034080B500AF324AC1239B00D3584C
S11383303049314A1A40C1239B00CA502D4AC123F7
S11383409B00D3582B49C022D2001A43C1239B005F
S1138350CA502A4AEC23D3582849294A1340EC220C
S11383608B50264AEC23D3582449C0229204134349
S1138370EC228B50214AEC23D35820498022D20589
S11383801343EC228B501F4B1A6C1E4B03218A4360
S11383901A641C4A1B4B126C1A641A4B1A6C194B44
S11383A00C218A431A64174B1A6C164B04210A4396
S11383B01A64144BC8225A64124A9023D3581149A0
S11383C00322934390228B500E4A9423D3580D4991
S11383D00822934394228B500A4A9023D358094984
S11383E04022934390228B500F20FFF731FFC04669
S11383F0BD4680BD00400640FFF8FFFF0050064028
S1138400FFFFFFBF00B0034080B500AFC046054B7F
S11384101B6880221340FAD0024B9B6C9BB218005D
S1138420BD4680BD00B0034080B582B000AF0200FD
S1138430FB1D1A700A4B1B681F2293431900FB1D76
S11384401A78074B0A431A60C046054A9023D3584A
S113845080221340F9D0C046C046BD4602B080BD5C
S113846000B0034080B586B000AF786000237B6124
S113847000233B610023FB601B20FFF7D5FFFFF7C0
S1138480C3FF03003B6139691A4801F0F4FE03009D
S1138490FB60FA6813009B009B185B0019001648E8
S11384A001F0E9FE03001A00144B1A60FA68130085
S11384B09B009B185B001900114801F0DCFE0300CF
S11384C01A00104B1A607A680C4B1B68D31A64228A
S11384D05A430C4B1B681900100001F0C9FE03003D
S11384E01A0019239B1A7B617B691800BD4606B0EC
S11384F080BDC046187C3E0013B3CE0190F8FF1F28
S1138500E4B9610094F8FF1F80B582B000AF0200A7
S1138510FB1D1A70FB1D1B787F2B09D8FB1D1B78D4
S11385201A001F231A40044B012191400A001A60CB
S1138530C046BD4602B080BD00E100E080B500AF9A
S1138540094BDA68084B01210A43DA60074B1A68C1
S1138550064B40210A431A6000F0CEFAFFF7D2FE20
S1138560C046BD4680BDC0460070034000B0034015
S113857080B500AF304A3049C0239B00D258C02395
S11385809B00CA502C4AC1239B00D3582A492B4A2A
S11385901A40C1239B00CA50274AC1239B00D358C9
S11385A02549C022D2001A43C1239B00CA50244A41
S11385B0DC23D3582249234A1340DC228B50204A1F
S11385C0DC23D3581E49C02292041343DC228B506F
S11385D01B4ADC23D3581A498022D2051343DC22D8
S11385E08B50194B9A68184B02210A439A60164B18
S11385F09A68154B02218A439A60134B9A68124B6E
S11386000D210A439A60104B9A6A0F4B0C218A433E
S11386109A620D4A0C4B926A9A620B4B0B4A1A628D
S1138620094B1A69084B01210A431A611620FFF706
S11386306BFFC046BD4680BD00400640FFF8FFFF0B
S113864000500640FFFFFFBF00700340C0C62D006E
S113865080B500AF024B01225A61C046BD4680BDC1
S11386600070034080B582B000AF0200FB1D1A7099
S1138670FB1D1B787F2B09D8FB1D1B781A001F23B9
S11386801A40044B012191400A001A60C046BD46BD
S113869002B080BD00E100E080B582B000AF094BBC
S11386A0DA69FB1D1A70FB1D1B78442B06D1064B9F
S11386B001221A70054B180000F036F9C046BD4679
S11386C002B080BD00A0064098F9FF1F80F8FF1F8C
S11386D080B500AF3F4A94235B00D3583D498022C4
S11386E0D2051A4394235B00CA503B4B59683A4B5A
S11386F0E022D2000A405A60374B5A68364B802138
S113870089000A435A60344B5A68334B02210A43A6
S11387105A60314B5A68304B01210A435A602E4B40
S113872019682D4BE022D2000A401A602A4B1A68BD
S1138730294B802189000A431A60274B1A68264B6B
S113874002210A431A60244B1A68234B01210A436D
S11387501A60224A214980239B00D25880239B001F
S1138760CA501E4A81239B00D3581C491C4A1A40F4
S113877081239B00CA50194A81239B00D35817496F
S1138780C02292001A4381239B00CA50114AD42369
S11387905B00D3580F49134A1A40D4235B00CA50D4
S11387A00C4AD4235B00D3580A49802292041A430A
S11387B0D4235B00CA50074AD4235B00D35805492D
S11387C08022D2051A43D4235B00CA50C046BD465A
S11387D080BDC0460050064000A004400040064052
S11387E0FFF8FFFFFFFFFFF880B500AFFFF770FF52
S11387F0264B1A69254B520B52031A61234B1A69F3
S1138800224B34210A431A61204B1A691F4B8021E1
S113881089020A431A611D4B1B691D4A1A401B4BEE
S1138820C02189040A431A61184B9A69174B022123
S11388308A439A61154B1A69144B16490A401A6106
S1138840124B9A69114B14490A409A610F4B9A6969
S11388500E4B10218A439A610C4B1A690B4B0F493A
S11388600A401A61094B5A69084B0A490A405A617D
S1138870064B9A69054B802189030A439A610C20AF
S1138880FFF7F0FEC046BD4680BDC04600A00640CE
S1138890FFFFFFE0FFFFFFDFFFF7FFFFFFDFFFFF4B
S11388A080B584B000AF78600A00FB1C1A701C4BC2
S11388B09A691B4B802109030A439A610F23FB1811
S11388C000221A7013E0C046154B5A6980231B041A
S11388D01340F9D00F217B181B787A68D3181A78C3
S11388E00F4BDA617B181A787B1801321A700F2348
S11388F0FA18FB1C12781B789A42E4D3C046084B42
S11389005A698023DB031340F9D0054B9A69044B61
S113891004490A409A61C046BD4604B080BDC046C1
S113892000A00640FFFFF7FF90B587B000AF786066
S11389307B681B785BB27B617B689B785BB2002BA6
S11389402CD07B685A687B699B00D3181B68154A36
S1138950082438190C2101F0E3F83B19180001F040
S113896043F90300DAB23B1911001800FFF798FF2E
S11389707B6901330A21180001F07DFC0B007B6147
S11389807B685B785BB201330A21180001F073FC49
S11389900B001A007B699A42D3D100E0C046BD4661
S11389A007B090BD9CA3000080B500AF044B9A694A
S11389B0034B8021C9020A439A61C046BD4680BD6B
S11389C000A0064090B583B000AF02003960FB1DE3
S11389D01A70FB1D1B787F2B28D82F4AFB1D1B7890
S11389E05BB29B08C0339B009B58FA1D12781100A0
S11389F003220A40D200FF2191400A00D2431A40C8
S1138A0011003B689B01FF221A40FB1D1B781800D4
S1138A1003230340DB009A401F48FB1D1B785BB215
S1138A209B080A43C0339B001A5031E01B4AFB1DCC
S1138A301B7819000F230B40083B9B0806339B004F
S1138A40D31804331B68FA1D1278110003220A405C
S1138A50D200FF2191400A00D2431A4011003B6822
S1138A609B01FF221A40FB1D1B78180003230340BF
S1138A70DB009A400948FB1D1B781C000F23234090
S1138A80083B9B080A4306339B00C31804331A604F
S1138A90C046BD4603B090BD00E100E000ED00E03B
S1138AA080B500AF104A94235B00D3580E4980224E
S1138AB0D2051A4394235B00CA500C4B5A690B4BE2
S1138AC00B490A405A61094B5A69084B80214900F5
S1138AD00A435A61074B5A69064B20210A435A61DB
S1138AE0C046BD4680BDC0460050064000A00440BC
S1138AF0FFF8FFFF40F00F4080B500AF024B20228B
S1138B00DA60C046BD4680BD40F00F4080B500AF7E
S1138B10FFF7C6FFFFF706FCFFF766FEFFF728FD29
S1138B2000210C20FFF74EFF01210F20FFF74AFF21
S1138B3001211620FFF746FFFFF78AFDFFF734FFF8
S1138B40044B1B78DBB2012BF8D1024B00221A70C4
S1138B50F4E7C04698F9FF1F80B500AF044B1A68CC
S1138B60044B1B68044819009047C046BD4680BDAD
S1138B70CCF8FF1FC0F8FF1F00A0064080B500AF6F
S1138B80044B5A68044B5B68044819009047C0467C
S1138B90BD4680BDCCF8FF1FC0F8FF1F00B00640E3
S1138BA080B500AF044B9A68044B9B6804481900D5
S1138BB09047C046BD4680BDCCF8FF1FC0F8FF1FDC
S1138BC000C0064080B500AF104B1A6880239B019B
S1138BD0134003D00D4B0E4A5A6005E00B4B0D4A6F
S1138BE05A600A4B0C4A5A60084B0C4A9A60074B6D
S1138BF01B68A02293431A00044B20210A431A60E5
S1138C0001F006FBC046BD4680BDC04600200540BD
S1138C1020C528D920C5000028D90000FFFF000086
S1138C20F8B50027344EC21C34689508B84212D0F7
S1138C3080235B059C46002C0FD10C3001F002F818
S1138C40431C08D080239B05036045608460002F8B
S1138C5050D130603EE00020F8BD236863452DD13B
S1138C60A1686368002909D00F6867451ED14F6861
S1138C700333FB1863608B68A360F1E7AB4220DA2F
S1138C802E000A36B3422AD98020800520600326AC
S1138C902000B2430C3082186560A26080245B1B04
S1138CA06405033B146053609160D5E7AB4213DB6A
S1138CB0EF1CBB420ADD07379F42E5D32700A468B7
S1138CC0B9E7EE1C9E4201DA0736DBE780239B05F9
S1138CD0236020000C30BFE72F000A37ECE79B002D
S1138CE0C01A00F0AFFF0130B5D080239B0523608C
S1138CF06560EEE7B860EDE7E0F8FF1F10B5FFF739
S1138D008FFF041E05D11722034901F045FB01F032
S1138D1030FB200010BDC046A8A3000070B5184C5D
S1138D2018492200002001F077F8802380225B009C
S1138D3000212000D20000F031FF134C134D22001B
S1138D402900012001F068F8802380225B000021C3
S1138D502000D20000F022FF0D4B1B68022B0DDD1A
S1138D600C4C29002200022001F056F880238022B6
S1138D70002120005B00D20000F010FF70BDC0464F
S1138D80E4F8FF1FC0A3000020F9FF1FC2A30000E6
S1138D90A4A300005CF9FF1FF0B5D1B00A92579A62
S1138DA00600089200220B93569B079218785A1CCF
S1138DB00C92002802D1079851B0F0BD252833D178
S1138DC000270C9A11000D7801322B2D60D048D861
S1138DD0202D5FD0232D5FD02A2D46D1089B01CBB7
S1138DE00D90002803DA40420D90012047400231E3
S1138DF015780C910893089B0693002310932E2D4D
S1138E005ED10C9B1D782A2D4BD00A2001332900FA
S1138E103039CCB21A00092C75D8109C1D78444303
S1138E200A1910920133F2E7079B0B9ADB179A4257
S1138E3009DC03D10A9B079A934204D8079B0133A8
S1138E4007930C9BB2E7B368013BB360002B04DBD0
S1138E5033685A1C32601870F0E7310000F034FFB8
S1138E60ECE72D2D11D0302D18D000230A200D93BE
S1138E702B00303BD9B20C920929BCD80D99157836
S1138E8041435B180D930132F2E701231F4399E735
S1138E900223FBE70423F9E70823F7E780239B0079
S1138EA0F4E7069B04330693089B1B6810930C9B02
S1138EB05D789A1C109B002B27DA00230C921093E8
S1138EC06C2D09D10C9B1D786C2D22D15D7860230B
S1138ED01F430C9B02330C934C2D4DD0712D4BD062
S1138EE01DDC682D4FD06A2D00D18AE0572D1CDC83
S1138EF0412D00D1C4E300DD88E0002D56D10C9B48
S1138F00013B0C93E3E0089B069310230C921F4350
S1138F10D6E70C9B01330C9320231F43DCE7742D0D
S1138F2071D07A2D6FD0782D40DC28005838202855
S1138F303CD801F016FAFB013B003B003B003B0030
S1138F403B003B003B003B00A5033B0088006B0358
S1138F507000700070003B006B033B003B003B0063
S1138F603B001B010E0365023B003B003C013B0040
S1138F7038033B003B002B020C9B1D7860231F43EE
S1138F800C9B013309E00C9B1D78682D07D18023CD
S1138F905B001F430C9B5D7802330C9304E00C9B35
S1138FA001330C9380231F43782D9FDD0D9B3A00E2
S1138FB0013B089301231A4010921F4247D0079B9C
S1138FC0079A0B990133D217914200DDA8E004D12E
S1138FD00A9A07998A4200D9A2E00793012400253E
S1138FE0079B089F2693DB172793013F00D49EE03D
S1138FF0089B089ADB43DB171340079AD31807939F
S113900065E040231F430C9B1D78BAE72B00022226
S11390109343452BCAD18023DB003B43FF0601D495
S1139020062210920721069A1F0007328A4303CAB8
S11390300023069200220492059300234690479150
S11390401A001193E5E1069B20CB0693AEE720249A
S1139050BF0500D51034079B2493DB172593089B89
S1139060013B37D50D9B002B55DD013B3893002385
S11390703993079B3E93DB173F933E983F99389A69
S1139080399B12184B410D99002900DC01210798E6
S1139090411807910B99994203DC18D10A9991421E
S11390A015D900230D9A9A4201DD01339B1A0D9ABA
S11390B0023A9B180893B368013BB360002B31DB81
S11390C033685A1C32601D70109B002B86D1069B9E
S11390D00893B6E60893259A0B9B934204DC0CD1C3
S11390E00A9B249A934208D9B368013BB360002BCE
S11390F00CDB33685A1C32601C700120249A259BB7
S1139100002112184B4124922593A8E73100200036
S113911000F0DAFDF1E70023002438933994A8E73E
S11391200793C8E73100280000F0CEFDCCE70B9B85
S1139130279A934204DC0DD10A9B269A934209D9BB
S1139140B368013BB360002B0BDB33685A1C3260FD
S113915020221A70269A279B12196B412692279374
S113916043E73100202000F0AFFDF3E7069B1A1D12
S11391707B0607D5069B07991B681960C9175960B8
S11391800692A4E7BB0604D5069B07991B681960E1
S1139190F6E7FB0504D5069B07991B681970EFE7F2
S11391A0069B07991B683F06F1D51980E8E7069BE3
S11391B004CB11923A93002A01D18A4B119311984E
S11391C000F012FD0690FB0603D5109A904200DDD4
S11391D006920D9B069A9B1A08933A0001231A40A3
S11391E00D921F4216D12024BF0500D51034079BD1
S11391F0089D1A93DB171B93013D36D5089B089AEB
S1139200DB43DB171340079AD2180792089A013AF6
S1139210D31A0893002701240025079B2093DB170A
S11392202193069B9F4240DBDB43069ADB171340E6
S1139230079AD31807933A9B06930D9B002B00D1F2
S113924045E701240025079B089F2893DB172993F2
S1139250013F4CD5089B089ADB43DB171340079A60
S1139260D31807933A9B069331E70B9B1B9A9342BF
S113927004DC0CD10A9B1A9A934208D9B368013BC7
S1139280B360002B0CDB33685A1C32601C70012065
S11392901A9A1B9B002112184B411A921B93ABE79D
S11392A03100200000F010FDF1E70B9B219A93425E
S11392B004DC0ED10A9B209A93420AD9B368013B7D
S11392C0B360002B0DDB33685A1C3260119AD25DF7
S11392D01A70209A219B12196B4101372092219315
S11392E09FE7119B3100D85D00F0EEFCF1E70B9B8A
S11392F0299A934204DC0DD10A9B289A934209D9F6
S1139300B368013BB360002B0BDB33685A1C32603B
S113931020221A70289A299B12196B4128922993AA
S113932096E73100202000F0CFFCF3E740233A0019
S11393301A401F421DD00722069B0733934319008E
S11393400CC904920593069180233A001A401F42E7
S113935015D06B461B8A049300230593224A3B07CE
S113936000D4224A224B1193F90652D521490F40C9
S11393704FE0069B059202CB04910693E4E7FB05BC
S1139380ECD56B461B7C05920493E7E740233A0037
S11393901A401F4218D00722069B07339343190033
S11393A00CC904920593069180233A001A401F4287
S11393B010D06B461B8A0493002305930E4A3B0787
S11393C000D40A4A0D4BCEE7069B059202CB0491CA
S11393D00693E9E7FB05F1D56B461B7C05920493E4
S11393E0ECE7C046C4A30000CBA30000BFA3000069
S11393F0D9A30000FFFDFFFFCEA30000EAA30000F5
S1139400069B04CB049200220693A74B0592A74A1D
S11394101193079B43924093DB1701220A980B99FF
S11394204193409B419CC01AA1415242089009912A
S11394304492459255200022109B48A942935054CF
S11394400132202AFBD18222D200174201D101220B
S113945042926E2D00DD1BE1472D00DDB3E12A00B1
S11394605123413AD340012219001140134200D044
S1139470EBE1109180233A00DB001A403A921F423C
S113948000D1F4E100234293449B002B01DD013B16
S11394904293459B429A002B02DD013B9B18429369
S11394A0109B429C43981C1900F09EFB0D9B1C1BB7
S11394B0231A0D9301233B403B937D4B1F4200D164
S11394C002E200231493DB171593439B5A1C439227
S11394D01D78002D00D0FAE13B9B149C002B15D184
S11394E020331193BF0501D510331193E3170D9F5A
S11394F01C941D93013F00D409E20D9B0D9ADB439C
S1139500DB171340013AE418D31A0D933A9B002B4E
S113951000D02DE2E3171294002501241393429BFB
S1139520013B4293002B00DB9AE201240025129BAD
S113953011931E93DB171F93109B5F1E002B00DDFE
S1139540ADE2109B109ADB43DB171340119A9C1871
S113955011E240233A001A401F4217D00722069B0B
S11395600733934319000CC9049205930691802391
S11395703A001A401F420FD06B461B8A0493002303
S113958005934C4A3B075FD44B4A5DE0069B05922A
S113959002CB04910693EAE7FB05F2D56B461B7CEC
S11395A005920493EDE740233A001A401F4220D06D
S11395B00722069B0733934319000CC904920593B1
S11395C0069180233A001A401F4218D06B461B8A2A
S11395D004930023059310213B0037480B400200FD
S11395E011930F4200D114E7344B1F400023119311
S11395F00FE7069B059202CB04910693E1E7FB0576
S1139600E9D56B461B7C05920493E4E77B061DD5E4
S11396100722069B0733934319000CC90E920F933C
S113962006913B0619D56B4638229B5E0E93DB17D9
S11396300F930F9B002B18DA0E980F9900234242C8
S11396408B41049205931E4A00238CE6069B04CBAF
S11396500E92D2170F920693E3E7FB05E9D56B460A
S113966038229B181B785BB2E0E70E9A0F9B04929A
S11396700593144ABB07E7D4134A7B07E4D483E772
S113968010231F4200D0C6E41F43033B1093C2E4DF
S113969028006F38092800D9E7E000F052FED28B89
S11396A0E6E6E6E617E6E68BEAA30000CEA30000B2
S11396B001020000D1A30000BFA30000FFFDFFFFD3
S11396C0D3A30000D5A30000D7A300000023109368
S11396D0049B059A134300D1CCE6049C059D059B8D
S11396E0049ADB0752081A43059B32925B083393B2
S11396F0049A059B92089B071A43059B34929B0886
S1139700359334983599329A339B12184B41190783
S11397101009084319092C902D912C982D99121891
S11397204B411906100A0843190A2E902F912E98BE
S11397302F9912184B411904100C0843190C30903E
S113974031913098319912184B4100213C933D914D
S11397503C983D9912184B415907DB082B93D008CC
S11397600023062208432A90A4185D412A982B99C5
S11397700A22002300F0B9FD241A8D412B07220987
S11397801A432B09369237930A222A9B2B9C36982C
S11397903799C018614128254243049B109C3033FB
S11397A09B1A3EAA521913552300013304900591C4
S11397B010938DE700220F2048A9049C059B1C43AD
S11397C019D1109256E62800583811284DD800F0C7
S11397D0C0FDF1FF4C004C004C004C004C004C0010
S11397E04C004C003C004C004C007DFF3C003C0015
S11397F03C004C007DFF049C119B04401C5D059BB8
S113980054541B079C46049B01321D09059B1C09EB
S113981063462B4304930594CFE704980840303003
S113982098540598013345070498C40805982543BE
S1139830C008049505900498059C2043EDD110932D
S113984018E60023072148AAF5E745AB039344AB88
S1139850029342AB019343AB009328003B00589C16
S113986048AA46A9A047109004E60023E7E7429BD4
S1139870109A9B1A00D412E63A9B10E6099BAB425D
S113988003DC0CD1089BA34209D9B368013BB36044
S1139890002B14DB33685A1C326020221A70012218
S11398A00023A4185D410D9B5A1E131BE6D50D9B86
S11398B00D99DB43DB170B40D21A0D9202E63100FF
S11398C0202000F001FAEAE700240025EBE7099BD9
S11398D0159A934204DC0CD1089B149A934208D93C
S11398E0B368013BB360002B0CDB33685A1C326055
S11398F01D700121149B159C00225B185441149384
S11399001594E2E53100280000F0DEF9F1E7099B47
S11399101D9A934204DC0DD1089B1C9A934209D9E9
S1139920B368013BB360002B0DDB33685A1C326013
S1139930119A1A7001201C9A1D9B002112184B4188
S11399401C921D93D6E53100119800F0BDF9F1E7A2
S113995048ABE85CE3173C2821D03E286AD1169432
S11399601793459B013B4593002B42DA169C013526
S1139970109BAB42ECDC3B9B002B0CD0E3170D9D02
S113998022942393013D00D4A9E00D9B0D9ADB435F
S1139990DB171340E418079B1B19FFF730FB1894DF
S11399A01993449B013B4493002B01DA189CDEE796
S11399B0099B199A934204DC0DD1089B189A93428F
S11399C009D9B368013BB360002B0DDB33685A1C23
S11399D0326030221A700121189B199C00225B18F6
S11399E0544118931994DCE73100302000F06CF9ED
S11399F0F1E7099B179A934204DC0DD1089B169A50
S1139A00934209D9B368013BB360002B0DDB336883
S1139A105A1C326030221A700121169B179C0022B6
S1139A205B185441169317949BE73100302000F0E3
S1139A304BF9F1E7099A934203DB0BD1089BA3424C
S1139A4008D9B368013BB360002B05DB33685A1CAB
S1139A503260187001348AE7310000F035F9F9E713
S1139A60099B139A934204DC0DD1089B129A9342EA
S1139A7009D9B368013BB360002B0BDB33685A1C74
S1139A80326030221A70129A139B12196B4112928F
S1139A90139344E53100302000F016F9F3E7099BF5
S1139AA01F9A934204DC0ED1089B1E9A93420AD952
S1139AB0B36848AA013BB85CB360002B0BDB336886
S1139AC05A1C326018701E9A1F9B12196B411E9209
S1139AD01F933B0031E5310000F0F6F8F3E7099BF2
S1139AE0239A934204DC0DD1089B229A934209D90C
S1139AF0B368013BB360002B0DDB33685A1C326042
S1139B0020221A700120229A239B002112184B4113
S1139B102292239336E73100202000F0D5F8F1E7B4
S1139B200CB430B505000C0097B0002803D100290F
S1139B302CD1013405AD1BAB3C22002107A80693B0
S1139B4000F071FB0A23079500250A93114B621E4E
S1139B500993114B07A80293069B01931A9B009348
S1139B602B00FFF719F9099B0400013B0993AB4251
S1139B7007DB079B1D70200017B030BC08BC02B087
S1139B801847280007A900F09FF8F4E7012464426D
S1139B90F1E7C046FFFFFF7F5BA20000F0B5C56898
S1139BA004000120AE070CD080208000824213D034
S1139BB08020C000824205D08020400082420BD029
S1139BC0FF38F0BD21000123243115430020216119
S1139BD02160E361E560F4E7024F5E1E0120BE42AE
S1139BE0F3D9EEE7FEFFFF000300032110B51A00CE
S1139BF00B4219D1114C1368114959189943214248
S1139C0019D0DCB2511C002C0BD0FF242402911C6F
S1139C10234206D0FF2109040B40591E8B41D3185F
S1139C20D91C0130081A05E001335C1E2478002C8D
S1139C30DDD1101A10BD0432DDE7C046808080807B
S1139C40FFFEFEFE70B50D4D04002B68002B01D104
S1139C500B4B2B6003232E6803349C4334192000E0
S1139C6000F060FA002802D12C60300070BD0C2294
S1139C700126044B76421A60F7E7C046DCF8FF1F62
S1139C809CF9FF1FD8F8FF1F2022C36810B5934327
S1139C90C3608269836A04009A420CD000F0F6F82B
S1139CA0E268074B1A4010231343E360A36AA361DD
S1139CB02369E3622360E368024A1340E36010BD52
S1139CC0EFCFFFFFBFBFFFFFF8B5504ACB680500D9
S1139CD01A400C00CA609B0602D50800FFF7D4FFA7
S1139CE0A268E668531C0FDAB3050DD402235B4265
S1139CF09B1AA36090235B023343E36023685A1CDE
S1139D0022601D70E8B20AE0414A3240022A07D0BC
S1139D100023A36080333343E36001204042F8BD55
S1139D2080213C4B090233408B420AD100212000A0
S1139D3000F05CF9E3689B0602D52000FFF7A4FF5E
S1139D40E6689023F0225B0233431201E36016427B
S1139D5010D1606900F014FB002821D073051FD5D1
S1139D6023002433236123600123E36192235B02F4
S1139D703343E36090210901226826690B4225D010
S1139D80E36A9A4200D91300991BB34217D1731C9A
S1139D90E3622360E3695A1EA26023633570B1E76E
S1139DA080277F003800FEF7A9FF9423E2685B0256
S1139DB033431A4320612060E761E260DAE722005E
S1139DC0300000F091F80028E1D0A6E7511CE8B279
S1139DD021601070E26A21688A4200D91100E269A8
S1139DE0891B22635B0504D40A2802D08A4200DD61
S1139DF088E7002322003000E6622660A36000F0BA
S1139E0073F8002800D088E77CE7C046FFFFF7FF1F
S1139E108A10000010A00000F7B50D00019010009A
S1139E20140000F095F82B78722B1CD0772B1DD0E2
S1139E30612B26D1144A593B0220691C032784460E
S1139E400426012508782B2813D0622816D0E26056
S1139E50019A62611B0704D502220021200000F050
S1139E60C5F82000FEBD00230122E5E704230222F9
S1139E70E2E760463A4303430131E3E732432B43CD
S1139E80FAE70024EDE7C0460280000070B5040044
S1139E90134AE36805691A400168C06AE2608222D5
S1139EA01A40022A02D00120404270BDDB030CD5C7
S1139EB0814200D201008D4209D10023094AA360E6
S1139EC0E368E56213402560E3600020EDE72200CB
S1139ED02800491B00F008F80028EED0E3E7C0464C
S1139EE0FFFFF7FFFFFFFEFFF7B5D5680F00140073
S1139EF056690190EB0205D5102330001D4300F094
S1139F003CFAA061104B1D420FD03000A16900F053
S1139F103DFA002806DA80230120E2684042134318
S1139F20E3600FE0094B1D40E5603A003000019901
S1139F3000F032FA4300A2695B08FB1AD318A3614C
S1139F400028E8D1FEBDC04610000200EFFFFDFF6F
S1139F50F0B5C56804004769066989B0AB0720D02D
S1139F602B0716D400F022F8380000F003FA2B0572
S1139F7002D5300000F05BF90B4BAD0DAD059D42F1
S1139F8007D120226846216A00F003FA684600F0EF
S1139F9066F93C220021200000F045F9002009B0B8
S1139FA0F0BD01204042FAE7000080ADF8B500287A
S1139FB012D000F0C3F805002800F8BD3800604353
S1139FC0084BC01800F0BAF8002801D001256D42F2
S1139FD00134A642F2DCEFE7034B040005003C2702
S1139FE01E68F6E7E4F8FF1FA4A30000F7B5436971
S1139FF0C6680193364B04000D0000921E420BD03C
S113A000019800F0BDF9071E06D1009B012B06D074
S113A010022B2DD0002B06D002273800FEBD2000D5
S113A02000F05AF82D18002DF6DBB30404D523688C
S113A030E26A9A4200D2E362A369AB420EDCE16AAF
S113A04022688A4200D20A002169D0180091401A7D
S113A050A84203DB206B1918A94228DC20231E43E5
S113A0600023A562A36063601A4B1E40E660D4E738
S113A070019800F082F9E268002804DA802313438F
S113A0800127E360C9E7E16A2368994200D90B001C
S113A090A1695B1821695B1A920603D5A26A9342EF
S113A0A000DA1300834200DA0300ED18BBE7EB1A71
S113A0B0B50701D5181AA060F00703D50099521A04
S113A0C09A1A6260009AD118202321609E43CBE73C
S113A0D003001000BFCFF7FFC16802008B0705D152
S113A0E0212201200E4B40421A60704720230B406E
S113A0F009030AD5002B02D0806A0138F5E7936979
S113A1000068C0181369C01AF7E7002B01D0806AF1
S113A110EBE70368816900695B18181AE5E7C04634
S113A120D8F8FF1F03000448002803D0002283420C
S113A130524110007047C0469CFBFF1FC36870B5B6
S113A14003221E0004001640134211D09B0611D5B1
S113A150856AFFF799FDE368094A20001340E3602C
S113A160FFF794FE0022060029002000FFF73EFFBF
S113A170300070BD83690568ED180369ED1AEAE7DC
S113A180FFCFFFFF80B582B000AF786039607B6895
S113A1909B785BB2DBB2092B12D97B681B785BB26C
S113A1A0DBB20133DBB25AB27B681A707B681B786E
S113A1B05BB2DBB2092B0CD97B6800221A7008E071
S113A1C07B689B785BB2DBB20133DBB25AB27B684B
S113A1D09A707B685B785BB2DBB20133DBB25AB254
S113A1E07B685A707B685B785BB2DBB2092B02D95F
S113A1F07B6800225A707B685A687B685B785BB224
S113A2009B00D3183A681A60C046BD4602B080BDB0
S113A21080B500AFC046BD4680BD10B5FEF77EFDDB
S113A220FEF774FC10BD10B500F076F810BD10B543
S113A230002811D080210C38490501608268002A69
S113A2400AD013688B4207D14368546803331B193F
S113A250436093688360F1E710BD0020704710B538
S113A2600400FFF7C1FC0100200000F08CF810BDD1
S113A27003000B4321D4002931D00122D207030962
S113A28001E0090112099942FBD9430801E04900A0
S113A29052089942FBD900E04908401A07D35241B9
S113A2A0FAD301461046704749084018F7D292186D
S113A2B0FAD34018014610467047CB0F00D04942EC
S113A2C0021000D54042534008B5FFF7D4FF0CBC40
S113A2D0521000D34042002A00D549421847F446A0
S113A2E0002000F001F86047704710B54343514324
S113A2F0C918040C130C5C43091992B2040C54439E
S113A30080B2434350432204240C801861411A0450
S113A3101B0C8018594110BD8446043A09D38307A5
S113A32007D109060B0A19430B0C1943043A02C05E
S113A330FCD2043203D001700130013AFBD16046F3
S113A34070478C4671460139095C49008E44614668
S113A35070478C46411E7144095E49008E44614633
S113A36070478C46411E7144095A49008E44614627
S113A3707047FEE701204042704701204042704789
S113A3800120404270470120404270470120404272
S113A390704701204042704710007047256C7520BB
S113A3A02000FFFF030000002A2A2A205F4373795C
S113A3B0735F616C6C6F63206661696C65640A002D
S113A3C072007700286E756C6C2900305800307864
S113A3D00030002D002B002000303132333435366C
S113A3E037383941424344454600303132333435FD
S10FA3F03637383961626364656600FF2B
S10BA3FC00FF0A0098F8FF1F9EZ