S113400000180020D5400000434100004541000055
S1134010000000000000000000000000000000009C
S11340200000000000000000000000004741000004
S11340300000000000000000494100004B41000066
S11340404F410000574100005F41000067410000FC
S11340506F410000774100007F410000874100006C
S11340608F410000974100009F410000A7410000DC
S1134070AF410000B7410000BF410000C74100004C
S1134080CF410000D7410000DF410000E7410000BC
S1134090EF410000F7410000FF410000074200002B
S11340A00F420000174200001F4200002742000098
S11340B02F420000374200003F4200004742000008
S11340C0B449000080F8FF1F0000000080F8FF1FC3
S11340D0D000000072B600F07DF90E4B07E01868BE
S11340E059681C000C349A6800F01AF823000A4A34
S11340F09342F4D306E018681C000834596800F0B1
S113410018F82300054A9342F5D362B600F0FCFB8D
S1134110FEE7C046C0400000CC400000D440000090
S113412010B5002302E010C810C104339342FAD33F
S113413010BD002302E0002204C004338B42FAD3F2
S11341407047FEE7FEE7FEE7FEE7FEE7FEE710B591
S1134150FFF7FCFF10BD10B5FFF7F8FF10BD10B559
S1134160FFF7F4FF10BD10B5FFF7F0FF10BD10B559
S1134170FFF7ECFF10BD10B5FFF7E8FF10BD10B559
S1134180FFF7E4FF10BD10B5FFF7E0FF10BD10B559
S1134190FFF7DCFF10BD10B5FFF7D8FF10BD10B559
S11341A0FFF7D4FF10BD10B5FFF7D0FF10BD10B559
S11341B000F0DAF810BD10B500F0E8F810BD10B545
S11341C000F0F6F810BD10B5FFF7C0FF10BD10B534
S11341D0FFF7BCFF10BD10B5FFF7B8FF10BD10B559
S11341E0FFF7B4FF10BD10B5FFF7B0FF10BD10B559
S11341F0FFF7ACFF10BD10B5FFF7A8FF10BD10B559
S1134200FFF7A4FF10BD10B5FFF7A0FF10BD10B558
S1134210FFF79CFF10BD10B5FFF798FF10BD10B558
S1134220FFF794FF10BD10B5FFF790FF10BD10B558
S1134230FFF78CFF10BD10B5FFF788FF10BD10B558
S1134240FFF784FF10BD10B5FFF780FF10BDFFFF1F
S113425080B582B000AF124B7B607B681B68802204
S1134260D2051A437B681A600E4B3B603B681B689F
S11342700D4A1A403B681A603B681B688022520052
S11342801A433B681A60094B3B603B681B68202259
S11342901A433B681A60C046BD4602B080BDC046A2
S11342A02851064014A00440FFF8FFFF54F00F40CB
S11342B080B582B000AF164B7B607B681B688022A0
S11342C0D2051A437B681A60124B3B603B681B683B
S11342D0114A1A403B681A603B681B6880225200EE
S11342E01A433B681A600D4B3B603B681B6808220D
S11342F093431A003B681A60064B3B603B681B689B
S113430003221A433B681A60C046BD4602B080BD12
S1134310305106400CC00440FFF8FFFFD4F00F40BA
S113432080B582B000AF044B7B607B6820221A60AA
S1134330C046BD4602B080BD4CF00F4080B582B08F
S113434000AF00237B6000237B6002E07B680133C5
S11343507B607B68034A9342F8D9C046C046BD4699
S113436002B080BDFF340C0080B500AF044B1A6866
S1134370044B1B68044819009047C046BD4680BDE5
S11343808CF8FF1F80F8FF1F00A0064080B500AF27
S1134390044B5A68044B5B68044819009047C046B4
S11343A0BD4680BD8CF8FF1F80F8FF1F00B006409B
S11343B080B500AF044B9A68044B9B68044819000D
S11343C09047C046BD4680BD8CF8FF1F80F8FF1F94
S11343D000C0064080B500AF104B1A6880239B01D3
S11343E0134003D00D4B0E4A5A6005E00B4B0D4AA7
S11343F05A600A4B0C4A5A60084B0C4A9A60074BA5
S11344001B68A02293431A00044B20210A431A601C
S113441000F075FAC046BD4680BDC0460020054088
S113442020C528D920C5000028D90000FFFF0000BE
S113443070B5184C18492200002000F0ABF8802316
S113444080225B0000212000D20000F02FF8134CE2
S1134450134D22002900012000F09CF880238022C3
S11344605B0000212000D20000F020F80D4B1B68F7
S1134470022B0DDD0C4C29002200022000F08AF8EA
S113448080238022002120005B00D20000F00EF87F
S113449070BDC0469CF8FF1FB0490000D8F8FF1F4C
S11344A0B2490000AC49000014F9FF1FF0B5C5681B
S11344B004000120AE070CD080208000824213D07B
S11344C08020C000824205D08020400082420BD070
S11344D0FF38F0BD21000123243115430020216160
S11344E02160E361E560F4E7024F5E1E0120BE42F5
S11344F0F3D9EEE7FEFFFF000300032110B51A0015
S11345000B4219D1114C136811495918994321428E
S113451019D0DCB2511C002C0BD0FF242402911CB6
S1134520234206D0FF2109040B40591E8B41D318A6
S1134530D91C0130081A05E001335C1E2478002CD4
S1134540DDD1101A10BD0432DDE7C04680808080C2
S1134550FFFEFEFE2022C36810B59343C360826948
S1134560836A04009A420CD000F04EF8E268074BCC
S11345701A4010231343E360A36AA3612369E3622F
S11345802360E368024A1340E36010BDEFCFFFFFEE
S1134590BFBFFFFFF7B50D0001901000140000F03D
S11345A095F82B78722B1CD0772B1DD0612B26D13C
S11345B0144A593B0220691C03278446042601251A
S11345C008782B2813D0622816D0E260019A626121
S11345D01B0704D502220021200000F0C5F82000AA
S11345E0FEBD00230122E5E704230222E2E7604640
S11345F03A4303430131E3E732432B43FAE7002410
S1134600EDE7C0460280000070B50400134AE36879
S113461005691A400168C06AE26082221A40022ACF
S113462002D00120404270BDDB030CD5814200D290
S113463001008D4209D10023094AA360E368E562C1
S113464013402560E3600020EDE722002800491BA9
S113465000F008F80028EED0E3E7C046FFFFF7FFBC
S1134660FFFFFEFFF7B5D5680F00140056690190EF
S1134670EB0205D5102330001D4300F086F9A0613C
S1134680104B1D420FD03000A16900F087F90028BB
S113469006DA80230120E26840421343E3600FE01E
S11346A0094B1D40E5603A003000019900F07CF9A7
S11346B04300A2695B08FB1AD318A3610028E8D160
S11346C0FEBDC04610000200EFFFFDFFF0B5C56857
S11346D004004769066989B0AB0720D02B0716D4BC
S11346E000F022F8380000F04DF92B0502D5300017
S11346F000F014F90B4BAD0DAD059D4207D12022FE
S11347006846216A00F04DF9684600F01DF93C2224
S11347100021200000F0FEF8002009B0F0BD0120C7
S11347204042FAE7000080ADF8B5002812D000F04E
S1134730B7F805002800F8BD38006043084BC018DE
S113474000F0AEF8002801D001256D420134A642E4
S1134750F2DCEFE7034B040005003C271E68F6E794
S11347609CF8FF1FAC490000F7B54369C668019384
S1134770364B04000D0000921E420BD0019800F04D
S113478007F9071E06D1009B012B06D0022B2DD062
S1134790002B06D002273800FEBD200000F05AF896
S11347A02D18002DF6DBB30404D52368E26A9A427F
S11347B000D2E362A369AB420EDCE16A22688A425A
S11347C000D20A002169D0180091401AA84203DBE4
S11347D0206B1918A94228DC20231E430023A5625C
S11347E0A36063601A4B1E40E660D4E7019800F0B2
S11347F0CCF8E268002804DA802313430127E3603D
S1134800C9E7E16A2368994200D90B00A1695B18E2
S113481021695B1A920603D5A26A934200DA130057
S1134820834200DA0300ED18BBE7EB1AB50701D5A4
S1134830181AA060F00703D50099521A9A1A6260F8
S1134840009AD118202321609E43CBE70300100077
S1134850BFCFF7FFC16802008B0705D121220120D9
S11348600E4B40421A60704720230B4009030AD5BF
S1134870002B02D0806A0138F5E793690068C018FC
S11348801369C01AF7E7002B01D0806AEBE70368CD
S1134890816900695B18181AE5E7C04698F8FF1F9C
S11348A0C36870B503221E0004001640134211D0E1
S11348B09B0611D5856AFFF74DFEE368094A20007F
S11348C01340E360FFF7A0FE002206002900200049
S11348D0FFF74AFF300070BD83690568ED1803696E
S11348E0ED1AEAE7FFCFFFFF80B500AFFFF7B0FC9A
S11348F0FFF7DEFCFFF714FDFFF720FDFAE780B5B4
S113490000AFC046BD4680BD10B5FFF791FDFFF76F
S1134910EBFF10BD10B500F020F810BD10B5002855
S113492011D080210C38490501608268002A0AD020
S113493013688B4207D14368546803331B194360DF
S113494093688360F1E710BD10B50400FFF7D4FD50
S11349500100200000F01FF810BD8446043A09D37A
S1134960830707D109060B0A19430B0C1943043AB0
S113497002C0FCD2043203D001700130013AFBD1F1
S11349806046704701204042704701204042704712
S113499001204042704701204042704701204042BC
S11349A07047012040427047100070470300000028
S10749B07200770016Z